:100000006F003070130000001300000013000000A8
:100010001300000013000000130000001300000094
:100020001300000013000000130000001300000084
:08003000130000007300100032
:100038000000000000000000C6030000CA03000022
:1000480000000000480E0000000000000000000052
:100058004A0E00004C0E00000000000000000000E6
:100068004E0E000000000000500E000000000000CE
:10007800520E0000540E0000560E0000580E0000EC
:100088005A0E00005C0E0000460B0000A60B000094
:100098000E0C0000700C0000660E0000680E0000D8
:1000A8006A0E00006C0E00006E0E0000700E00005C
:1000B800720E0000740E0000760E0000780E00002C
:1000C8007A0E00007C0E00007E0E0000800E0000FC
:1000D800820E0000EA0C0000860E0000880E000068
:1000E8008A0E00008C0E00008E0E0000900E00009C
:1000F800920E0000940E0000960E0000980E00006C
:100108009A0E00009C0E0000400A0000A00E00009D
:10011800A20E0000A40E0000A60E0000A80E00000B
:100128001A0D0000AC0E0000AE0E0000B00E00006C
:10013800B20E0000B40E0000B60E0000B80E0000AB
:10014800BA0E0000BC0E0000BE0E0000C00E00007B
:10015800C20E0000C40E0000C60E0000C80E00004B
:10016800CA0E0000CC0E0000CE0E0000D00E00001B
:10017800D20E0000D40E0000D60E0000D80E0000EB
:10018800DA0E0000DC0E0000DE0E0000E00E0000BB
:10019800E20E0000E40E0000E60E0000E80E00008B
:1001A800EA0E0000EC0E0000EE0E0000F00E00005B
:1001B800F20E0000F40E0000F60E0000F80E00002B
:1001C800FA0E0000FC0E0000FE0E0000000F0000FA
:1001D8000000000000000000000000000000000017
:1001E8000000000000000000000000000000000007
:0801F8000000000000000000FF
:100200003D432A876373C3029377F700BDEFADE5E3
:10021000937606FF3D8ABA960CC34CC30CC74CC7F5
:100220004107E36BD7FE11E28280B306C3408A0622
:100230009702000096966780A6002307B700A306E2
:10024000B7002306B700A305B7002305B700A30432
:10025000B7002304B700A303B7002303B700A3022A
:10026000B7002302B700A301B7002301B700A30022
:10027000B7002300B700828093F5F50F93968500B1
:10028000D58D93960501D58D61B79396270097027A
:10029000000096968682E78086FA9680C1171D8FA9
:1002A0003E96E374C3F8A5B73367B500FD530D8BD5
:1002B00079E7B7877F7F9387F7F710419441B3724F
:1002C000F6003363F600BE92B3E262006397720CED
:1002D0006318D6065041D441B372F6003363F6007A
:1002E000BE92B3E262006398720A631BD6041045A3
:1002F0009445B372F6003363F600BE92B3E2620037
:100300006391720A631ED6025045D445B372F6005B
:100310003363F600BE92B3E26200639A720863111F
:10032000D60210499449B372F6003363F600BE92C8
:10033000B3E26200639372085105D105E30FD6F66C
:100340001317060193970601631CF7001357060164
:1003500093D706013305F7409375F50F91E9828035
:100360004183C1833305F7409375F50F91E1828096
:100370001377F70F93F7F70F3305F74082800346A3
:10038000050083C60500050585056313D60065FADB
:100390003305D640828011059105E312D6FE014552
:1003A00082802105A105E31CD6FC01458280310530
:1003B000B105E316D6FC014582804105C105E31075
:1003C000D6FC014582807300203001A0B765000093
:1003D0003745004001119385850D1305054006CE74
:1003E00022CC26CA4AC84EC652C4EF20802113052B
:1003F0002003EF20C02A9384018C37690000938981
:10040000018C9305C90E268545351DE9B74400408A
:10041000376A0000376900009384044093050A0F8F
:100420001385018C513505C126859305890F2382DB
:100430000906EF20001D13052003EF204026F9BF19
:10044000238204067DBFF2406244D2444249B2494D
:10045000224A05618280797126D24AD052CC56CA8E
:100460005AC85EC662C406D622D44ECE2A8AB76B5C
:100470000000B76A000037690000376C000085474C
:10048000138401836316FA1093850BFF1385018C87
:10049000213D11ED2320440137450040130505405F
:1004A0009385CAFFEF20E0155145EF20401F18400B
:1004B00085476312F7049305090F1385018CED330B
:1004C0001DE91306400681451385018C153B8947BC
:1004D000B74900401CC09389094093054C014E85E3
:1004E000EF2020125145EF20801B9305090F138543
:1004F000018C5D3B7DF1184089476319F702B765B0
:1005000000009385C5031385018C793B05E1B76530
:100510000000374500409147130505409385850D40
:100520001CC0EF20000E5145EF2060171840914786
:100530006319F702B76500009385C50E1385018C1A
:10054000A53305E1B7650000374500409547130521
:1005500005409385850F1CC0EF20A00A5145EF2070
:10056000001418409547E31CF7F09305090F138515
:10057000018C1D3BE31505F0B250225492540259F0
:10058000F249624AD24A424BB24B224C45618280C8
:100590001CC019B7411126C2B76500009385050A32
:1005A0001385018C06C622C44AC0FD3911E1393DCC
:1005B000B76500009385850B1385018CF53111E13A
:1005C000593D0144138641929384018CB9471389A4
:1005D000018CB386840083C60600330786000504B9
:1005E0002300D700E317F4FEB76500009385850C60
:1005F00013854192553921E11387C1859306400641
:100600009387C18533068900034606000504050764
:10061000A30FC7FEE318D4FE038757008387B700F4
:10062000130707FD23A2E184938707FD23A4F18428
:10063000054723ACE180B240224492440249410183
:10064000828083A78184094541111D8D9307C008CD
:100650003305F50226C21387C18206C622C44AC0EA
:10066000032907009384C18213052503EF40A032BC
:10067000B767000083A5C709EF4080032A844A8535
:10068000EF40C03DAA852285EF30F04BEF40402B74
:100690009387018488C39843FD57138401846315AD
:1006A000F7001C4085071CC037190140014693051F
:1006B0000008130509C0EF00502305469305000408
:1006C000130509C0EF0070220546930500081305C5
:1006D00009C0EF00902198401C40E36EF7FE3714EC
:1006E0000140130504C0014693050008EF00F01F08
:1006F000EF10A064EF10C06A130504C00146930513
:100700000004EF00901E130504C02244B24092443E
:10071000024905469305000841016F00101D411173
:1007200003A5418426C2938781824AC003A907009A
:100730009317150025451D8D930740033305F502DA
:1007400006C622C4938481821305C503EF40A0240A
:10075000B767000083A5C709EF3090752A844A85E2
:10076000EF40C02FAA852285EF30F03DEF40401DBD
:100770009387C18388C39843FD571384C18363154E
:10078000F7001C4085071CC03719014001468565EC
:1007900013050940EF0070150546916513050940E2
:1007A000EF00B0140546856513050940EF00F0130E
:1007B00098401C40E36EF7FE3714014013050440D7
:1007C00001468565EF007012AD3D130504400146FA
:1007D0009165EF009011130504402244B240924409
:1007E00002490546856541016F00301013878182FB
:1007F0001843A16641119386A67522C426C2369776
:1008000006C64AC0FD5693848182138441836306E1
:10081000D70818C0371901400146856513050940FE
:10082000EF00B00C0546916513050940EF00F00B91
:100830000546856513050940EF00300B1C409840C4
:10084000E36FF7FE37140140014685651305044048
:10085000EF00B0090146916513050440EF00F00870
:100860000546856513050440EF0030081387C181F4
:10087000854614C39387C18109479443E39FE6FEED
:100880002244B24092440249371501400146856531
:100890001305054041016F005005232004009DBF52
:1008A0001387C1821843A16641119386A67522C49D
:1008B00026C2369706C64AC0FD569384C182138469
:1008C0008183630DD70818C037190140014693058D
:1008D0000008130509C0EF00500105469305000408
:1008E000130509C0EF0070000546930500081305C5
:1008F00009C0EF00807F1C409840E36FF7FE37147B
:100900000140014693050008130504C0EF00E07D97
:10091000014693050004130504C0EF00007D054661
:1009200093050008130504C0EF00207C13870182A3
:10093000854614C39387018209479443E39FE6FEEB
:100940002244B240924402493715014001469305C2
:100950000008130505C041016F0020792320040021
:10096000A5B7411106C6EF10D03D0545ED34EF1097
:10097000403AEF10403BEF106022EF10E062BD35CF
:100980000537B24041016F10602D7971094506D6D7
:1009900022D452CC56CA5AC85EC662C466C26AC065
:1009A00026D24AD04ECEEF00F023EF10D049716529
:1009B00013050520EF109051376500001305C50F92
:1009C000EF400051793FB76A0000B76B0000376D08
:1009D0000000C9369385018C13858A10EF40A03D35
:1009E0009385C1851385CB11EF40E03C1389418489
:1009F000938481848325090093898181904083A613
:100A00000900938505FD130606FD13050D13EF4040
:100A1000803A03A709008547E31DF7FA83270900F9
:100A2000E3C907FA9C40E3C607FAEF102017C5395F
:100A300083A70900F5FFEFF07F99EF10202251BF47
:100A4000411122C63744004093055052130504401B
:100A500026C44AC2EF00506E6DC1130504409305D1
:100A60005052EF00B0719387418283C7070013078C
:100A70003006138441829384018C637DF700130652
:100A8000400681451385018CEFF08FF72382040621
:100A90002300040083470400A6970387F7FF93070A
:100AA000B002631EF70083470400A697A38F07FEDA
:100AB00083470400FD1793F7F70F2300F4008347E3
:100AC0000400A6970387F7FFA947631AF700834737
:100AD0000400A6970387E7FFB5476302F702834741
:100AE0000400A6970387F7FF930700026314F70239
:100AF00083470400A6978387E7FF639DE7001306FB
:100B0000400681451385018CEFF08FEF23820406A8
:100B1000230004003745004013050540EF007060D6
:100B20008347040093F7F70F138717001377F70F26
:100B3000BE942300E4002380A4003244A24412495E
:100B400041017300203041111305200322C6EF102C
:100B5000103537250140854513050580512385470C
:100B60006318F5022A84376500001305C504EF40B9
:100B7000203637150140014693050008130505C0CE
:100B8000AD2393870182984363148700094798C374
:100B900005454921054585218547E30DF5FE32448C
:100BA00041017300203041111305200322C6EF10CC
:100BB000102F3725014089451305058015238547EA
:100BC000631CF5023765000013050506EF40403051
:100BD00037140140014693050008130504C0312372
:100BE000014693050004130504C00123054693053F
:100BF0000008130504C0D5290945292905440945DC
:100C0000DD2EE30E85FE3244410173002030411198
:100C10001305200322C6EF10902837250140914587
:100C200013050580752985476319F50237650000AE
:100C300013054507EF40C02937140140014685657B
:100C4000130504405D210146916513050440712997
:100C5000054685651305044049291145652E05445F
:100C60001145512EE30E85FE3244410173002030C0
:100C700041111305200322C626C4EF105022372548
:100C80000140A14513050580A12985476313F5049B
:100C9000AA843765000013058508EF4060233715E7
:100CA000014001468565130505408121138481813A
:100CB0001C4063989700EF104022EF10000823209B
:100CC00004009387C181944305476394E600094774
:100CD00098C32145812605442145312EE30E85FE2A
:100CE0003244A244410173002030411122C63734FE
:100CF00001408545130504C0EF00D02C19C9938726
:100D0000C18298438545130504C0050798C3EF00C9
:100D1000302D3244410173002030411122C6373456
:100D20000140854513050440EF00D02919C9938778
:100D300081829843854513050440050798C3EF0059
:100D4000302A3244410173002030B71702409843E3
:100D5000B706FFF841111367170098C3D843370649
:100D60000200758FD8C39843B706F7FEFD16758F3E
:100D700098C39843B706FCFFFD16758F98C3D843F8
:100D8000B70681FFFD16758FD8C39843B70600ECF0
:100D9000FD16758F98C33707FF0098C723A6070273
:100DA00002C402C69843C166558F98C3B716024065
:100DB00005679C42F18F3EC6A24785073EC4B247F5
:100DC00081E7A247E397E7FEB71702409C431397DA
:100DD000E7006357070685473EC632478547631FCE
:100DE000F704B7170240D843B706C1FFFD16D8C3B2
:100DF000D843D8C3D84313670740D8C3D843758FA7
:100E0000D8C3D843B7061D00558FD8C39843B7063B
:100E10000001558F98C3984393166700E3DD06FEE3
:100E2000D843B7160240719BD8C3D8431367270035
:100E3000D8C32147DC42B18BE39EE7FE41018280AB
:100E400002C661BF01A001A001A001A001A001A0F4
:100E500001A001A001A001A001A001A001A001A08A
:100E600001A001A001A001A001A001A001A001A07A
:100E700001A001A001A001A001A001A001A001A06A
:100E800001A001A001A001A001A001A001A001A05A
:100E900001A001A001A001A001A001A001A001A04A
:100EA00001A001A001A001A001A001A001A001A03A
:100EB00001A001A001A001A001A001A001A001A02A
:100EC00001A001A001A001A001A001A001A001A01A
:100ED00001A001A001A001A001A001A001A001A00A
:100EE00001A001A001A001A001A001A001A001A0FA
:100EF00001A001A001A001A001A001A001A001A0EA
:100F000001A0970100209381E19617710020130141
:100F1000610F175500001305254E97F5FF1F9385A8
:100F2000650E1386818163FAC5008322050023A024
:100F3000550011059105E3EAC5FE1385818193856E
:100F400081936377B500232005001105E36DB5FE9D
:100F5000FD42739002BCFD4273904280B762000074
:100F60009382820873A0023097F2FFFF9382020DF2
:100F700093E2320073905230EFF03FDD97020000B1
:100F80009382E2A0739012347300203058410328FA
:100F900005004C4537060140930706403E979346AF
:100FA000F8FFB1C583250640F58D2320B640D04318
:100FB000F18ED4C31443B3E6060114C3184190471D
:100FC0009346F7FF758E90C7D047F18ED4C714456E
:100FD00041466399C6009447D98E94C7D447558F2C
:100FE000D8C78280B6979443558F98C382801C439C
:100FF000F58F1CC38280B70701401387074083A782
:101000000740584B698F09C77D8D3335A00082801A
:1010100001458280B707014023AAA74082809C45F2
:1010200013F7070113F8F70001C7D8413368E80048
:1010300083D5050013F7F50F39C318418146854E56
:101040003D4F930F800293028004214E3396DE00C1
:10105000B3F8C500631116039398260033131F01DC
:101060001343F3FF3377E300B318180133E7E800C5
:10107000639FF70550C98506E39AC6FD18C113079B
:10108000F00F6375B70454412146854E3D4F930FD1
:10109000800293028004414EB398CE0033F71501CD
:1010A0006392E8021317260001173313EF0013436E
:1010B000F3FFB376D3003317E800D98E639DF701B1
:1010C000232A15010506E319C6FD54C18280E39465
:1010D00057FA10C94DB7E39757FE23281501DDB71E
:1010E00008456D8D3335A000828019C20CC98280FD
:1010F0004CC98280B707014063570504DC4F135782
:1011000005019376F7001316050137073000418279
:101110003378E500635C05046319E8021387060170
:101120008D46B396E60093C6F6FFF58F89C913572F
:10113000550112073317E600D98F635705043707A7
:1011400001405CCF8280DC435DBF1317B50063565E
:1011500007000D47B316D700F9B71357550112070B
:101160003317E6001347F7FFF98FC9B76312E80298
:101170003708014083264800370700F17D17F98FB3
:10118000758F2322E800C5F5370701405CC38280D4
:101190001317B500635C07000D473317D7001347DB
:1011A000F7FF7D8FB707000FD98FF1BF1357550198
:1011B00012073317E600E5B713F7C50F93F73500AD
:1011C000B7050140BA9594458A073D473317F700A4
:1011D0001347F7FF758F98C598453315F500598D5E
:1011E00088C58280397122DC26DA2A84835445003E
:1011F00068082EC606DE7524925737470F0013077E
:10120000072433D7E702C204C18093F404FCC2046C
:10121000C180B24561651305056A13160701418255
:10122000D18C2312940083560400C206C182F99A1D
:10123000C206C1822310D40094416366D506860697
:10124000B3D7D7029146139707014183BA876373D7
:10125000D700914705064206C2074182C183231089
:10126000C402231EF4008357040003D7450083D62D
:10127000A50093E717002310F40083570400558F4F
:10128000F250C207C18393F757BFD98F2310F400E0
:1012900003D7850083D7C500D254D98F2314F40017
:1012A00062542161828003D5650031667D16631E1C
:1012B000C5020D46B386C602B3D7D702C207C183A3
:1012C0009396470199E293E71700A166D58F93069D
:1012D000C0123307D7029306803E3347D702050773
:1012E000420741832310E402ADBF6546B386C602C0
:1012F000B3D7D7029166C207C183D58FD1B78357C1
:10130000050091C593E717002310F5008280C207FE
:10131000C183F99BC207C183C5BF8357050091C52F
:1013200093E707102310F5008280C207C18393F76B
:10133000F7EFC207C183FDB78357050091C593E757
:1013400007202310F5008280C207C18393F7F7DFDF
:10135000C207C183FDB78357050091C593E70740D6
:101360002310F5008280C207C18393F7F7BFC2073D
:10137000C183FDB72318B50082800355050113759D
:10138000F50F828093F7E50F19C293E71500C207A6
:10139000C1832318F50082808357450103558501D9
:1013A00042055D8D6D8D220521810D8D1335150052
:1013B0008280411102C402C693D7C5012AC63EC429
:1013C000A247A205A18199CBB247D1073EC6B24739
:1013D000884341016D8D3335A0008280B247C181C1
:1013E000E107EDB723A6A18482809387C18494434B
:1013F0000347050089E683472500920731A89443F7
:1014000005466391C60483472500034615009207ED
:101410006314D60093E707F8B7E600E093F7F70FF9
:10142000BA962380F6408546935757003397E600D7
:101430005441ADC6938707048A07B7E600E0B69724
:1014400098C382808C4389466393D50283461500F6
:10145000834725006365D6008A06B69779BF9386D1
:10146000E6038A06B69793F7F70F920765B790439E
:101470008D46631ED60083461500834725006364AE
:10148000D6008606D9BF9386C6078606E1BF944379
:101490009147E39AF6F88347150085B793870706C7
:1014A00061BF371702405C439146B18B6385D7001B
:1014B000A1466386D706B7177A00938707201CC119
:1014C000371602405C42370700201307070091835C
:1014D000BD8BBA9783C607001C41B3D7D7005CC148
:1014E0005442A1829D8ABA9683C60600B3D6D7001D
:1014F00014C55442AD829D8A369703470700B3D77F
:10150000E7005CC5584239839376370013874180E2
:10151000369703470700B3D7E7021CC982805C43B4
:1015200054434167C983F98E37F7FF1F0327C770FC
:10153000BD8B89071316170163480600454601470E
:101540006392C702C94739A809476389E7023D4743
:101550006388E70241476388E70245460147639392
:10156000C700C14785E6B746024083A60680C18A08
:101570008DC6B7167A009386062025A00147D9B7F5
:101580000547B547C5B70147BD47E9BFB716024094
:10159000D4421396E600E35E06FCB7163D00938640
:1015A0000690B387D7021CC101DF1C41858301BFB0
:1015B00099C5371702401C4F5D8D08CF8280B71741
:1015C0000240984F1345F5FF798D88CF828099C5E9
:1015D000371702405C4F5D8D48CF8280B7170240BD
:1015E000D84F1345F5FF798DC8CF8280835705000A
:1015F00037370140930607C0C207C1836300D50493
:10160000B7060040630CD502938606406308D502F6
:10161000B7160040138606806302C502938606C093
:10162000630ED50013070740630AE50037570140F2
:10163000930607C06304D5006317E50003D72500B0
:1016400093F7F7F8D98F37170040630DE5001307BC
:1016500007406309E50093F7F7CF03D76500C2079A
:10166000C183D98F2310F50083D745002316F502D7
:1016700083D705002314F502B7370140138707C04D
:10168000630EE50093870740630AF500B7570140F2
:10169000138707C06304E5006316F50083C7850060
:1016A0002318F5028547231AF50082808357050227
:1016B00003D6050003D82500C207C183F99BC207E2
:1016C000C1832310F5028357050283564500035753
:1016D0008501C207C183420741831377C7F8518F41
:1016E00003D68500F59BC20633660601D18F3736D7
:1016F0000140130806C0C182630E050113060640AF
:10170000630AC50037560140130806C0630405018B
:101710006313C50203D6A500DD9B03D8E500D18F76
:1017200003D64500ED9B93F6F6CFD18F03D6C500C7
:1017300033660601D18E2312D500231CE50003D7A2
:101740006500231AE5022310F50282808357050005
:1017500091C593E717002310F5008280C207C1836B
:10176000F99BC207C183C5BF8357450491C5216753
:10177000D98F2312F5048280C607C583DDBF835746
:10178000C50009C6DD8D2316B500828093C5F5FF1F
:10179000FD8DD5BF8357050091C593E7070823103A
:1017A000F5008280C207C18393F7F7F7C207C183B0
:1017B000FDB783578501C207C183DD9BDD8D231CE7
:1017C000B5008280835705010355C500ED8F4205A2
:1017D000418189C76D8D3335A000828001458280AB
:1017E00093C5F5FFC205C1812318B50082808356D9
:1017F0000501F577FD17F58F83D66500397122DC79
:1018000006DED58F03D7C5002318F5008356C50023
:10181000FD779387379FF58F83D645002A842EC6A0
:10182000D58F83D68500D58F83D6A500D58F231677
:10183000F50083574501C207C18393F7F7CFD98FCE
:10184000231AF5006808B139B7470140938707802C
:10185000B245631EF404A2578356C4006547B3879C
:10186000E702C206C186984163D5060406070356FF
:10187000C4004206B3D7E702130740064186B3D639
:10188000E702B3F7E7029206635706028E079387D3
:101890002703B3D7E70213F77700B367D700C20770
:1018A000C1832314F400F250625421618280925764
:1018B00065B70A076DBF920793872703B3D7E7027F
:1018C000BD8BD58FE9BF81C98357C5000967D98F03
:1018D0002316F50082800357C500F977FD17F98FAD
:1018E000C5BF13F7F50F85471583B395B700631987
:1018F000F7009307C500984301CED98D8CC3828031
:10190000894693074501E318D7FE93070501E5B71C
:1019100093C5F5FFF98DDDB793F5F51F2312B500DB
:101920008280035545001375F51F8280035505001D
:101930006D8D3335A000828013F7F50F8546158332
:10194000B397B6006313D7020357C500F98F035747
:10195000050001454207418381CB0545A181B315AF
:10196000B5006D8F3335E000828089466315D7005E
:1019700003570501E1BF03574501C9BFA181854751
:10198000B397B70093C7F7FFC207C1832310F500D1
:1019900082805D71A6C2AA840565A2C41305458034
:1019A0002E84854586C632C602D202D402D602D81B
:1019B00002DA02DC02DE02CC02CE2310010202C8EF
:1019C00002CAFD36930700102312F10237150140B9
:1019D000F1473ED64C108D47130505807D143ED44B
:1019E000EFF0EFE3231C8100373401402C0813058E
:1019F00004C0FD14231E9100231F0100231D0100BC
:101A0000F5363246C1670C187D1693870703130518
:101A100004C0231BC1023ED8231C01024139854763
:101A20003ECA0808930790022318F1002309010019
:101A3000EFF0BF9B0546130504C0854589331305A8
:101A400004C085451533130504C081459D33130536
:101A500004C085458133130504C08545C539B640AA
:101A600026449644616182805D71A6C2AA8409659C
:101A7000A2C441052E84854586C632C602D202D450
:101A800002D602D802DA02DC02DE02CC02CE231039
:101A9000010202C802CAEFF0BFB19307000423128B
:101AA000F102F1473ED64C108D47371501407D14A9
:101AB0003ED4EFF0CFD6231C8100373401402C08F0
:101AC00013050440FD14231E9100231F0100231D54
:101AD0000100EFF0BFB13246C1670C187D16938745
:101AE000070313050440231BC1023ED8231C010237
:101AF000753E85473ECA08089307C0032318F100C6
:101B000023090100EFF07F8E05461305044085454B
:101B1000BD311305044085458139130504408145D5
:101B20004939130504408545B53113050440854501
:101B30003139B64026449644616182800111854561
:101B4000214506CEEFF0DFA6D1473EC6371501404E
:101B50009307000C2312F1004C008D47130505C0BC
:101B60003EC4EFF0CFCBF240056182800111854584
:101B70001305000206CEEFF0BFA3D1473EC63715CE
:101B8000014095672312F1004C008D471305054075
:101B90003EC4EFF0CFC8F2400561828039718545BF
:101BA0001305100406DE22DC26DAEFF07FA093078F
:101BB00080043ECE37250140BD47231AF1004C0872
:101BC0008D47130505803ECCEFF06FC5814511456B
:101BD000EFF08FDE85451145EFF00FDE89451145A9
:101BE000EFF08FDD8D451145EFF00FDD0544A14489
:101BF000081022D022D626D402D2EFF02FB989477E
:101C000008103ED0EFF08FB8914708103ED0EFF0AB
:101C1000EFB7081026D0EFF06FB793076011680098
:101C200022C82316F10023070100EFF00FFCDD4767
:101C300068002306F100EFF04FFBE1476800230640
:101C4000F100EFF08FFAE54768002306F100EFF0AE
:101C5000CFF9F2506254D2542161828039718545A6
:101C60001305100406DE22DCEFF09F949307800436
:101C70003ECE37250140BD47231AF1004C088D4761
:101C8000130505803ECCEFF08FB981451145EFF08B
:101C9000AFD285451145EFF02FD289451145EFF0C0
:101CA000AFD18D451145EFF02FD185472144081064
:101CB0003ED022D402D602D2EFF04FAD89470810B1
:101CC0003ED0EFF0AFAC914708103ED0EFF00FAC34
:101CD000081022D0EFF08FABD94768002306F1003F
:101CE00002C8EFF08FF0DD4768002306F100EFF047
:101CF000CFEFE14768002306F100EFF00FEFE54773
:101D000068002306F100EFF04FEEF25062542161BB
:101D1000828041113D469305800C794506C6A93362
:101D2000B2404101A1B5411129469305800C5145AE
:101D300006C68531B240410111B5411101478146C6
:101D4000130620038145014506C6EF0060651305B3
:101D5000800CEF00D0140147814651468145114562
:101D6000EF0000641305800CEF00701301478146FB
:101D70001306A00581452145EF0080621305800C04
:101D8000EF00F011314501478146130630078145C8
:101D9000EF000061B2401305800C41016F0030106C
:101DA000411101478146130680078145314506C62A
:101DB000C52B1305800CEF00900E014781461306DA
:101DC000200381450145E92B1305800CEF00300D00
:101DD000014781461306800281451145D123130531
:101DE000401FEF00D00B0147814613064006814596
:101DF00021457D231305401FEF00700A01478146EE
:101E00001306A00581451145612B1305401FEF0006
:101E10001009014781461306F005814531454923E4
:101E20001305800CEF00B00701478146130600053B
:101E300081451145B52313050019EF0050060147F0
:101E400081461306600481451145992B130500193D
:101E5000EF00F004014781461306700381451145E8
:101E6000812313050019EF0090030147814679464D
:101E700081451145352313050019EF005002014734
:101E800081461306400681452145192B130500198B
:101E9000EF00F000014781461306A005814521456A
:101EA000012313050019EF00807F014781461306C7
:101EB000B00481452145ED2113050019EF00207E76
:101EC0002145014781461306C0038145D129B2400F
:101ED0001305802541016F00807C41110147814637
:101EE000130620038145014506C65D291305800CB4
:101EF000EF00E07A014781461306800281451145D3
:101F000045211305401FEF008079014781461306E4
:101F100020038145114569211305401FEF002078FA
:101F20000147814613067003814501459529130534
:101F3000C012EF00C076014781461306C0038145F9
:101F40000145B9291305C012EF00607501478146AC
:101F50001306100481450145A1211305C012EF00AD
:101F600000740147814613066004814501450D292F
:101F70001305C012EF00A0720147814613068007C7
:101F80008145314531291305800CEF004071014531
:101F9000014781461306200381451921B2401305EC
:101FA000C01241016F00A06F51654111A945130591
:101FB000058806C60928B767000003A5C714C92607
:101FC000B24041019DBB39714ED652D4AE892A8AA6
:101FD0008545254506DE22DC26DA4AD802C202C43F
:101FE00002C602C802CA02CC02CEEFF06FDC854501
:101FF0000945EFF02F90854537052000EFF02FDDE4
:10200000371401409307001071498D444C001305AB
:1020100004C02312F1004AC626C4EFF04F80930794
:1020200000204C00130504C02312F1004AC626C448
:10203000EFE0FFFEB7070040375400403ECA930769
:102040000040231DF1000C08916713050440231E76
:10205000F10052C8231C3101EFF0CF981305044062
:102060008545EFF0CFA9130504408545EFF0AFAEED
:10207000F2506254D2544259B259225A216182809C
:10208000011122CC3754004026CA4AC84EC606CE9B
:1020900052C4AA892E8993040440B70502002685FC
:1020A000EFF02FB17DF91305044085453704030097
:1020B000B7540040EFF06FA60504138A0440A285D0
:1020C0005285EFF06FAD65DD138504400146930541
:1020D0000008B704070037540040EFF0AFAA93841C
:1020E0002408130A0440A6855285EFF0EFAA65DDA7
:1020F000B70500109385050813050440EFF06FAB9A
:1021000011C5CE8513050440EFF0CFA6B704070034
:10211000375400409384440893090440A6854E85B3
:10212000EFF08FA765DDB70500109385050813054F
:102130000440EFF00FA811C5CA8513050440EFF065
:102140006FA337040700B7540040130444081389F1
:102150000440A2854A85EFF02FA465DD6244F24079
:102160004249B249224A13850440D244854505615B
:102170006FF08F9C01114AC82A893755004022CC44
:1021800026CA85451305054037040300B7540040AF
:102190004EC606CE0504EFF04F9893890440A28501
:1021A0004E85EFF06F9F65DD138504400146930572
:1021B0000008B704070037540040EFF0AF9C938449
:1021C000240893090440A6854E85EFF0EF9C65DD59
:1021D000B70500109385050813050440EFF06F9DC7
:1021E00011C5CA8513050440EFF0CF9837040700E6
:1021F000B75400401304440813890440A2854A855B
:10220000EFF08F9965DD13850440854537040300A1
:10221000B7540040EFF06F90050413890440A28585
:102220004A85EFF06F9765DD1385044001469305FD
:102230001008B704070037540040EFF0AF949384C0
:10224000240813090440A6854A85EFF0EF9465DD64
:1022500013050440EFF06F92AA84854513050440EE
:10226000EFF08F8DF240624426854249D244B24954
:1022700005618280411106C622C44AC24EC0EF20C9
:10228000D00AB767000003A6071783A64717EF1009
:10229000403FEF205014EF205009B76700002A8616
:1022A000AE8603A5871783A5C717EF007057B767DA
:1022B000000003A6071883A64718EF101008B76799
:1022C000000003A6871883A6C7181D25D1292A89CF
:1022D0000145AE8945359375F5062A8493E50501D8
:1022E0000145793BCE854A85EF1010799375F50F3E
:1022F0001305E00F7133A2850145EFF07FD8094542
:10230000792E936514FA2244B2401249824993F51A
:10231000F50F014541016FF0BFD641110A0522C4F6
:102320001374F50F130564004AC01375E50F2E8969
:1023300093F5F50F06C626C2B284EFF07FD493550D
:1023400089001305740093F5F50F1375F50FEFF081
:102350003FD31305840093F5F40F1375C50FEFF009
:102360003FD213059400224493D58400B240924496
:10237000024993F5F50F1375F50F41016FF05FD02A
:10238000411122C481452A84014506C6EFF05FCF82
:102390002285CD352244B2401305A00F410101A68C
:1023A000797122D45AC85EC606D626D24AD04ECEFD
:1023B00052CC56CA85472A8B2E84B28B6383F6068D
:1023C00099CE89476386F60CB25022549254025932
:1023D000F249624AD24A424BB24B45618280328511
:1023E000EF10506FB767000003A6071583A64715C7
:1023F000EF102029B767000003A6871583A6C7152D
:10240000C529EF1070672254B25092540259F24914
:10241000624AD24AB24B2A865A85424B814545616F
:10242000EDBD3285EF10106BB767000003A60715EE
:1024300083A64715B7640000EF10A024B76700001B
:1024400003A6071683A647166521EF10F0622A86B9
:1024500081455A85D93533858B40636474013305D2
:102460007441EF10306703A6841683A6C416EF10DC
:102470004021EF1070602254B25092540259F24938
:10248000624AD24A424BB24B42054181456101AC9E
:1024900063FCC5049304A00FB3049702B767000060
:1024A00003AA071583AA4715B767000003A90716F3
:1024B00083A947162285EF10F0615286D686EF1069
:1024C000401CCE864A862D21EF10105B2A8681455E
:1024D0005A85A1350945E122050426851374F40FB8
:1024E000412AE3F98BFCCDB5E370B6EE9304A00F5F
:1024F000B3049702B767000003AA071583AA47151C
:10250000B767000003A9071683A947162285EF10B5
:10251000705C5286D686EF10C016CE864A86C92ECB
:10252000EF1090552A8681455A85EFF01FDF094547
:10253000BD227D1426851374F40F1D2AE37874FDE3
:1025400061B539718545114506DE22DCEFF04F8615
:10255000854537050200EFF08F87E1473ECE3714FF
:1025600001409147231AF1004C088D471305048060
:102570003ECCEFE0DFAA91473ECE4C08A1471305C1
:102580000480231AF100EFE09FA9F167374400406F
:10259000938707200C103ED013050440B7070C00AA
:1025A0003ED402D223160102EFF06FA48547130731
:1025B000600368003EC82316E1002307F100EFE046
:1025C000DFE213050440054693055052EFF06FB16A
:1025D000130504408545EFF00FAFF25062542161BE
:1025E0008280411122C406C62A84EFF0EFB293051F
:1025F00000082285EFF08FB37DD9B240224441011B
:102600008280411122C426C24AC006C6AA842E89ED
:102610000144B307890083C5070026850504D13727
:102620001374F40FB307890083C70700FDF3930504
:1026300000042685EFF08FAF7DD9B240224492444A
:10264000024941018280B707002083A70707371797
:102650007A0013070720B3D7E70293F7F70F238910
:10266000F1841307803EB387E7022398F1848280C8
:10267000B7F700E0D8438146799BD8C303C72185CB
:102680003306A70290CBD4CB98431367170398C3A4
:10269000D843058B75DF9843799B98C38280B7F741
:1026A00000E0D8438146799BD8C303D70185330620
:1026B000A70290CBD4CB98431367170398C3D84392
:1026C000058B75DF9843799B98C38280797122D4FA
:1026D0002A8411658545110506D6EFE07FED930745
:1026E00000202312F100371501408D473EC44C00F5
:1026F000E147130505803EC6EFE07F9222C83744CC
:102700000140B70708000C08130504803ECC02CA3C
:10271000231E0100EFF0AF8D130504808545EFF017
:102720008F9AB250225445618280011126CAB74463
:10273000014022CC4AC84EC606CEAE893289014439
:1027400093840480634A2401F24062444A85D2445F
:102750004249B24905618280930500042685EFF065
:10276000EF9C7DD9B3878900838507002685050402
:10277000C205C181EFF04F9AF1B7138781801C43E6
:10278000938681933E95636BD500B7860020938630
:10279000068063E5A60008C33E858280FD57EDBF35
:1027A00093D74541011193F7F77F22CC26CA4AC837
:1027B0004EC652C406CE56C25AC0938417C04D4767
:1027C0002E84AA892E892A8A6348970863C404063E
:1027D000370B1000930AFBFFB3DA9A40B3F7BA0045
:1027E000C98FAA862E879DCB974700009387879A2B
:1027F0009043D443F52801468146EF00B05D635D08
:10280000A00063560400B3549B403389840093CAEC
:10281000FAFF33795901014AD2864A87F24062446D
:10282000D2444249B249224A924A024B3685BA857D
:1028300005618280974700009387C7959043D443F2
:10284000452801468146EF00F058E357A0FC63435A
:102850000406014A0149C9B713073003635E9700B4
:1028600093070040AA862E87E39AF4FAAE862A865A
:102870004120AA862E875DB79387D7BEFD5AB3DA6B
:10288000FA00B3F7AA00AA862E87C9DB9747000093
:10289000938747909043D443A12801468146EF0097
:1028A0007053E35BA0F66340040293C7FAFF337AE8
:1028B000FA009DB70604058033643401014A29DC1F
:1028C0003709F0BF91BFD147638FF40093074003EE
:1028D000858F8544B394F400A69963F949011309DF
:1028E00014004E8AD9B713091400C1B74E8A75BFB8
:1028F0003708100001117D183377B80026CA3378E5
:10290000D80093D4450113D34601131E37004EC699
:102910001357D5010E089357D60193F4F47F137320
:10292000F37F06CE22CC4AC893D9F50193DEF60197
:102930003367C701131F350033E80701931F3600C3
:10294000338E64406380D9196356C0136304031C3B
:10295000B70680009307F07F3368D800638FF436A2
:102960009307800363C0C735FD4763CDC747130591
:1029700000023305C541B3D7CF01B316A800339980
:10298000AF00DD8E33392001B357C80133E926018A
:102990001D8F33092F41B3372F013306F7409317AB
:1029A000860063D40724370780007D173374E60060
:1029B000630C042C2285EF20A038130785FF9307B2
:1029C0000002998FB357F9003316E400D18F331901
:1029D000E9006341972A33059740130615007D47A8
:1029E000634DC73813070002118FB356C90033195E
:1029F000E9003397E700558F333920013369270108
:102A000033D6C70081449377790081CF1377F900DB
:102A100091476308F70013074900333927014A96A5
:102A20003A899317860063D6071C13851400930711
:102A3000F07FCE856304F520B70780FFFD17F18F87
:102A40009398D70113593900A607B3E82801B18339
:102A50001375F57F9396C7005205F2406244B18228
:102A6000FE05C98ECD8ED2444249B2494685B6850F
:102A700005618280631E0E0A138314001373E37FC3
:102A800063170322B367E701B368F801639D041A73
:102A900063870740638608443309FF41B307074152
:102AA00033362F013386C7409317860063D6074C11
:102AB0003389EF41B307E84033B62F013386C7406F
:102AC000F68991B76350C00F6300030CB70680000E
:102AD0009307F07F3368D800638AF43A9307800342
:102AE00063CBC713FD4763DFC73513090EFE93079A
:102AF0000002B3562801630AFE00130900043309DB
:102B0000C94133192801B3EF2F013339F00133697B
:102B1000D90031A2B367F801638A071C9307FEFF4F
:102B2000638C07389306F07F6309DE1A3E8E0DBD75
:102B3000B305934063910422B367E70163870732CB
:102B40009387F5FF638107449306F07F638CD5205C
:102B5000BE859307800363CCB72AFD4763CFB73C9C
:102B6000930700028D8F3319F700B356BF00B317D8
:102B7000FF003369D900B337F0003357B70033692A
:102B8000F9003308E84041ACB367F80163800734CB
:102B90009307FEFF638A07209306F07F6308DE2E0B
:102BA0003E8E2DBF631E0E149386140093F7E67FAE
:102BB00063910734B367E7016395042C6380073E94
:102BC000B367F801638E07303309FF01B3070701CC
:102BD000333FE9013386E7019317860063D7070087
:102BE000B70780FFFD177D8E854493777900E39FBB
:102BF00007E09317D60193583900B3E8F8009357CC
:102C000036001307F07F638DE404B207B18313F538
:102C1000F47FCE8581B53369F801333920017A9983
:102C2000B337E9013386E70093178600E3DF07FA3D
:102C300085049307F07F6396F418CE851305F07F23
:102C40008147814801BDC1EB6384083A9316360081
:102C50009317D8018D82B3E8D700F68993573800CF
:102C6000B3E7F800F9DB81451305F07FB7070800EB
:102C70008148CDB3370680FF7D167D8E937779002E
:102C8000998CE39507D8B5B74A85EF20600B1307F9
:102C90008501FD47E3D5E7D2130685FFB317C900C9
:102CA000014905BB3369F80133392001DDB133092E
:102CB000FF413306074133342F0133048640931715
:102CC000840063CD0724B3688900E39308CE81476D
:102CD000814981441DBFE39808F80E059317D70179
:102CE0000D81B3E8A700935737009DBF0E059317DA
:102CF000D7010D81B3E8A700F2849357370011B7CD
:102D00003305934063820412B70680009307F07F77
:102D1000558F630DF32E9307800363CBA720FD47E8
:102D200063C3A72A93070002898F3319F700B356AC
:102D3000AF00B317FF003369D900B337F000335742
:102D4000A7003369F9003A987E99B337F9013386C1
:102D500007019A84D1BDB70680009307F07F558F95
:102D6000E319F3DE931736008D839318D801B3E887
:102D70001701F68993573800E5B5130715FE93063A
:102D8000000233D7E700630AD600930600043386B7
:102D9000C6403396C7003369C9003339200133690F
:102DA000E9000146814491B53309FF01B3070701EA
:102DB0003336E9013E96931786008544E3D707E250
:102DC0008944B70780FFFD17F18F13571900137956
:102DD0001900336927019398F70133E9280113D6C5
:102DE000170015B113090EFE93070002B356280110
:102DF000630AFE00130900043309C941331928018D
:102E0000B3EF2F013339F0013369D90059B6336973
:102E1000E7013339200133892F41B3B72F0133063E
:102E2000F8409A84F689A5BEB367E7016382071864
:102E30009307F5FF6384071C9306F07F6304D512A4
:102E40003E85D1BD93070002B387C741B316F80092
:102E50003399FF0033D6CF01D18E33392001B357D8
:102E6000C80133E926013E975DBB931736008D8379
:102E70009318D801B3E81701AE8493573800F68948
:102E800049B3EDC33369F801E31F09DC0E0593175D
:102E9000D7010D81B368F50093573700D1B3638133
:102EA000080E931636009317D8018D82B3E8D70029
:102EB000F6899357380091BB3309FF41B3070741A7
:102EC000333F2F013386E7418544D1BC0E0593176C
:102ED000D7010D81B368F500F2849357370015B31D
:102EE0000E059317D7010D81B3E8A700935737005C
:102EF00029BB9307F07FE382F6D43309FF01333611
:102F0000E901B3070701B2979398F7011359190024
:102F100033E9280113D61700B684C1B93389EF41CC
:102F20003307E84033B62F013304C740F68949B46C
:102F30003369E7013339200101BD938705FE93060C
:102F40000002B357F700638AD50093060004B385E7
:102F5000B6403317B700336FEF003339E001336900
:102F6000F90055BD931736008D839318D801B3E847
:102F7000170193573800EDB1B368C900E39708C64D
:102F80008147814959B13389EF41B307E84033B6EE
:102F90002F013386C740F689854411B49316360055
:102FA0009317D8018D82B3E8D70093573800B1B991
:102FB000931636009317D8018D82B3E8D700AA8400
:102FC000935738003DB9930705FE93060002B357A7
:102FD000F700630AD500930600043385A640331733
:102FE000A700336FEF003339E0013369F900A9BB63
:102FF00081451305F07FB7070800A9BC3309FF011D
:10300000B30707013336F9013E9675B393163600C0
:103010009317D8018D82B3E8D7009357380089B150
:10302000397193D7450122DC4AD856D22A891394A4
:10303000C50006DE26DA4ED652D45AD05ECE13F53F
:10304000F77F318093DAF501630B05109307F07F6A
:10305000630BF514135AD9010E0433648A00370A3E
:103060008000336A4401131B3900930415C00144E6
:10307000814B13D846011399C6001378F87FB288A4
:103080001359C90093D9F601630E08089307F07F1E
:103090006300F8041357D6010E093369270113089A
:1030A00018C0B70780003367F90093183600B3845F
:1030B00004418145BD4733C83A0163E4871A973715
:1030C00000009387A70D0A043E9410403E960286A6
:1030D0003367C900938414806312071013642400BB
:1030E00081488945C1BF1306F07F81470147B20778
:1030F000F25062545206B1837E08D18FB3E70701C4
:10310000D2544259B259225A925A025BF24B3A8532
:10311000BE852161828001481306F07FB707080051
:103120000147F1B73367C9004DC7630809304A85C5
:1031300032C4EF10F0402246130755FFF5479306BF
:1031400085FF998F3319D900B357F60033E727016C
:10315000B318D60026959304353F8145A1BF336A45
:10316000240163030A0636C632C46306042A228594
:10317000EF10103D2246B246AA84130755FF754A48
:10318000138B84FF330AEA4033146401335A490134
:10319000336A8A00331B69011305D0C0B30495401C
:1031A0000144814BF9B5336A240163180A002144B4
:1031B000014B9304F07F894B6DBD228A4A8B3144C9
:1031C0009304F07F8D4B75B51144014B8144854BC1
:1031D0004DB51364140081488545E9BD136434007E
:1031E0004A878D45C1BD630A052E8547898F9306A1
:1031F000800363DDF632014681470147CDBDCE86AF
:103200008947638DF53A8D47E387F5F08547368822
:10321000E383F5FE1385F43FE357A0FC93F77800B2
:103220006396072893D638009317770063D8070072
:10323000B70700FFFD177D8F138504409307E07FDC
:10324000E3C3A7EA1316D70193179700B183336737
:10325000D6001376F57F61BDD6865287DA88DE8583
:1032600045B763614723630DEA20DA86FD14528473
:10327000014B9317870013D388013363F300935EE8
:103280000301B357D403131F0301135F0F0193D539
:103290000601139E88003374D4033307FF024204EF
:1032A000C18D63FBE5009A951386F7FF63EE6526F3
:1032B00063FCE526F9179A95998D33D7D503C20695
:1032C000C182B3F5D5033306EF02C205D58D63FB8A
:1032D000C5009A959306F7FF63E6652463F4C52459
:1032E00079179A95C20741645D8F9307F4FF337590
:1032F000F70093580701935F0E01B377FE00B30206
:10330000F502B386C540B383F80293D50201338634
:10331000AF021E962E963385F803637376002295CE
:10332000C168FD1893550601337616014206B3F8BD
:103330001201AA95469663E6B6126382B612330668
:10334000CB408D8E333BCB00338B66411385F43FEE
:10335000630C6317B358DB0393550601337BDB0320
:10336000B3061F03420B33EB6501637BDB001A9B43
:103370009385F8FF636D6B20637BDB20F9181A9B44
:10338000330BDB40B356DB0342064182337BDB0366
:10339000330FDF02420B33666601637BE6011A9648
:1033A0009385F6FF6367661E6375E61FF9161A9626
:1033B000C208B3E8D8009395080193D20801C181EF
:1033C000B38EF5023306E641B385BF0293D60E01F4
:1033D000B387F202BE95AE96B38F5F0263F4F60038
:1033E000C167BE9FC165FD1593D70601ED8EC2066C
:1033F000B3FEBE00BE9FF696637FF6091A969387CA
:10340000F8FF6369661A6368F619630FF61BBE88D6
:1034100093E8180011B54A85EF1090121307550173
:10342000F145930405022246B246E3DAE5D41304DB
:1034300085FF331A8900014B85B3328532C4EF1002
:10344000301013075501F146AA87224613050502DD
:10345000E3D6E6CEE1173317F6008148E5B9E3700D
:10346000CBEE729B3335CB011A95AA961305F7FF65
:103470006378D30263E6B6106382D5102A87C1B59C
:10348000E3651BDF93551B009316FA0113541A00D2
:10349000CD8E7E0BF9BBE31DF6F7E38F06D6B9BFE1
:1034A000E31ED3FCE378CBFD2A8751BD93F7F800E8
:1034B0009146E389D7D693B7C8FF9386480093C750
:1034C00017008D823E978DB381468547E34CA0FE61
:1034D000FD58E31C05D0930410C085471385E441D3
:1034E000B316A70033D6F8003395A800D18E333534
:1034F000A000C98E13F676003357F70001CE93F77C
:10350000F60011466388C70093874600B3B6D7001C
:103510003697BE869317870063D807040546814710
:103520000147F1B636877DBBB28779B3FD46E3D755
:10353000F6FA0556098E930600023356C7006388D3
:10354000D7009387E443B317F700B3E8F800B33626
:103550001001D18E13F67600814701CE93F7F60065
:1035600011460147E392C7FA931797001316D70144
:10357000B18313D73600518F014695BEE370CBF06F
:10358000729B3335CB011A957917AA964DBBAE883D
:10359000C5BBAE8631BD93171E0033BEC701729303
:1035A0001A96F9183E8EE315F6E7E307DEC693E8B0
:1035B00018009DB1BE88E30AF6FF99BD3688130650
:1035C000F07F8147014725B6E367DEFCBE88E31044
:1035D000DEFE99B113D74501B7071000FD1713D8C8
:1035E00046011377F77F9308F07F33F3B7002A8EF5
:1035F000F58FFD81B28E1378F87FFD826308170383
:10360000630018030DEBB368A300631408005D8E1C
:1036100029CA638508046388D502054595ED828033
:10362000B3E8C700E38008FE795582803365A300C4
:1036300065FD630CE802631408005D8E79DEE39E8D
:10364000D5FCE34CE8FC63480701E3E867FC63034F
:10365000F302637FF30081E57D558280F5DE054549
:1036600082800145E39B08FA82805D8E69DA6DBF36
:1036700001458280E3E3CEFB0145E372DEFBE5F129
:10368000E1BF39714AD813D945014ED652D456D22A
:103690009399C50006DE22DC26DA5AD05ECE137975
:1036A000F97F2A8A93D9C90093DAF501630D090ECF
:1036B0009307F07F6306F9181354D5018E09B36997
:1036C00034013704800033E4890093143500130972
:1036D00019C08149814B13D74601139AC60013774D
:1036E000F77FB285135ACA0013DBF601630B07108C
:1036F0009307F07F6303F7049357D6010E0A33EA6A
:103700004701130717C0B7078000B367FA00931586
:1037100036003A99814833C76A01BD463A85130895
:10372000190063E8361717360000130626AB8A091E
:10373000B29983A60900B2968286B367CA001309BC
:10374000F97F6399071293E9290081458948E1B718
:1037500001479307F07F3704080081443204D20701
:1037600031807E075D8C598CA285F250625426858B
:103770004259D254B259225A925A025BF24B2161F9
:1037800082805A853E84AE84C68B8947638DFB0E4A
:103790008D47E38FFBFA85472A87639EFB38814775
:1037A0000144814465BF33E4A90061C036C632C418
:1037B000638C092A4E85EF10A0582246B246AA878C
:1037C000130755FF7544938487FF198CB3999900AB
:1037D00033548A0033643401B3149A0013D746017A
:1037E0001309D0C0139AC6001377F77F3309F94045
:1037F0008149814BB285135ACA0013DBF601E319E4
:1038000007EEB367CA00B1C7630F0A22528532C4FC
:10381000EF10005322462A87930655FFF54793057C
:1038200087FF958F331ABA00B357F600B3E7470105
:10383000B315B6003309E9401309D9C08148E1BD89
:1038400033E4A90001ECA14981441309F07F894BBD
:1038500059B593E919008145854875BD4E84AA8400
:10386000B1491309F07F8D4BBDB5914981440149A0
:10387000854B95B593E93900D2878D4869BD894755
:103880005685E397FBF02A879307F07F0144814434
:10389000F1B5C16E1386FEFF93D6040113DE050158
:1038A000F18CF18D338695023383B602935806016D
:1038B00033059E021A95AA98B382C60363F3680083
:1038C000F692C16F1383FFFF33F5670093D30701AF
:1038D000B3F76800C207337366003E933306950260
:1038E00093D80801B387A602135F0601B38493023D
:1038F000BE94FA94B38E760263F3F400FE9E416A9E
:103900009307FAFF935F0401B376F400B3F9F40070
:103910007D8EC1803384D502C209338FD401B29920
:10392000CE98B307DE02935E0401B385BF02AE9763
:10393000BE9E330EFE0363F3BE00529EC1679385A5
:10394000F7FF33F6BE006D8C4206229693DE0E0121
:10395000B305D502769E3385AF0213D40501B38635
:10396000D302AA96A296B38FF30363F3A600BE9F79
:1039700041657D15B3F7A600C2076D8DAA97B38583
:103980005800B3B93501FA97B2953384370133B68D
:10399000C500B30EC4013385CE0033343401B3B750
:1039A000E701C18F33BECE0113D406013336C50003
:1039B0003E943366CE009394950032947E94B3E4A3
:1039C0006400260493567501B3349000DD8193178B
:1039D0009500CD8C558CDD8C9317740063DB07004C
:1039E00093D7140085889316F401DD8CD58C05805F
:1039F00042899307F93F6359F00893F6740081CE2A
:103A000093F6F40011466388C60093864400B3B46D
:103A100096002694B6849316740063D80600B70700
:103A200000FFFD177D8C930709409306E07F63CF6D
:103A3000F60E93D634009314D4012604D58C31802D
:103A400093F7F77F21BB328532C4EF10602F9306C6
:103A50005501F147130705022246E3D1D7DC611572
:103A6000B317A6008145F9B3EF10802D1307550158
:103A7000F145930705022246B246E3D5E5D4611528
:103A80003314AA00814499BB85469D8EB1E7130982
:103A9000E941B3972401B3D4D40033192401B337D7
:103AA000F000B3649900DD8C93F77400B356D40032
:103AB00081CF93F7F40011466388C70093874400D1
:103AC000B3B49700A696BE849397860063D8070484
:103AD00085470144814459B113068003E341D6CCA4
:103AE0007D46E356D6FA0556B307F6409305000225
:103AF0003356F4006387B6001309E943B317240172
:103B0000DD8CB3349000D18C93F67400014499CAD3
:103B100093F7F40011468146E392C7FA1394960096
:103B20003180F6068D80D58C81470DB99307F07FE3
:103B30000144814425B142896DBD370710007D17CE
:103B400001113373B70093D84601758F935ED60188
:103B500022CC26CA0E0393D445019357D5010E07F4
:103B600006CE4AC84EC693F8F87F130EF07F33E7AF
:103B7000EE0093F4F47F13D4F50133E36700131FD1
:103B80003500FD82931E36006380C81993C6160067
:103B9000B38514416305D4126351B018638B081ABE
:103BA000B70780005D8F6381C4599307800363C4A6
:103BB000B734FD4763C5B748930700028D8FB3D96B
:103BC000BE003318F700B39EFE0033683801335748
:103BD000B700B339D001336838013303E340B30988
:103BE0000F41B3373F013306F3409317860063D389
:103BF0000724370980007D1933792601630F092CCA
:103C00004A85EF10E013130785FF93070002998F91
:103C1000B3D7F9003316E900D18FB399E9006344B3
:103C2000972A058F13061700FD4663C5C63A13078A
:103C30000002118FB3D6C9003398E9003397E7002B
:103C4000558F33380001B369070133D6C70081446B
:103C500093F7790081CF93F6F90091476388F600D6
:103C60009386490033B836014296B6899317860089
:103C700063D6071C138714009307F07F058863063B
:103C8000F720B70780FFFD17F18F1398D70193D95D
:103C90003900A60733683801B1831377F77F93960D
:103CA000C7005207B1827E04D98EC18EF2406244B1
:103CB000D2444249B2494285B68505618280635645
:103CC000B00A638A0812B70780005D8F6387C42D2E
:103CD0009307800363C7B718FD4763D2B73C1388C7
:103CE00005FE93070002B3590701638AF5009307A5
:103CF0000004B385B7403317B700B3EEEE00333896
:103D0000D0013368380195A2B367D7019385148039
:103D100099E393C61600630AD404D1E19387140093
:103D200093F7E77F6399071EB367E3013368D70111
:103D3000639204166382073C631608421318350029
:103D40009316D3011358380033E806019357330014
:103D500019A2B367D7016385071A9387F5FF638BB1
:103D6000073A638CC523BE8589B56399051C938684
:103D7000140093F7E67FC1EFB367E3016390043665
:103D8000638D0744B367D701639407460E05131884
:103D9000D3010D813368A800935733006DA8B38514
:103DA000984063970420B367E301638D07309387DE
:103DB000F5FF638907401305F07F6383A520BE8567
:103DC0009307800363C2B72AFD4763C8B73C9307D4
:103DD00000028D8F3318F3003356BF00B317FF0076
:103DE0003368C800B339F0003353B3003368380187
:103DF00033076740B5ACB367D70163830710938778
:103E0000F5FF638F071E6380C52FBE85D1B593076D
:103E1000F07F638BF606FA9E33B6EE01B307E3003C
:103E2000B2971398F70193DE1E00B369D80113D639
:103E30001700B68493F77900E39F07E09317D60144
:103E400013D839003368F800A68593573600130756
:103E5000F07F6380E506B207B18313F7F57F05882D
:103E60003DBD3367D7013338E000B309E801B3B78C
:103E7000E9013386670093178600E3DD07FA8504BE
:103E80009307F07F639CF41805881307F07F814740
:103E9000014831B5639107106301083C13183600DF
:103EA0009317D701135838003368F80036849357B6
:103EB0003700B367F800E9DB01441307F07FB70769
:103EC00008000148E9BB370680FF7D167D8E93F719
:103ED0007900998CE39107D895B74E85EF0050662D
:103EE00013078501FD47E3D2E7D2130685FFB39799
:103EF000C90081492DB33368D70133380001C5B1FA
:103F0000131835009317D301135838003368F8009D
:103F1000935733002DBFB309DF413309E3403336F4
:103F20003F013309C9409317890063CA072033E86A
:103F30002901E31508CC8147014431BFB38598407E
:103F400063810414B70680009307F07F3363D300C6
:103F50006381F8209307800363CCB722FD4763C9D0
:103F6000B72C930700028D8F3318F300B356BF00B0
:103F7000B317FF003368D800B339F0003353B300F0
:103F8000336838011A97B309D801B3B7D90133861A
:103F9000E700C684CDB5E31108F213183500931776
:103FA000D301135838003368F8009357330011B722
:103FB000370580009307F07F3363A300E392F8E0B6
:103FC0000E061318D7010D823368C80093573700C7
:103FD0003684C5B505179306000233D7E700630A98
:103FE000D600930600043386C6403396C700B3E973
:103FF000C90033383001B369E800014681441DBD72
:10400000B309DF01B307E30033BFE9013386E701FA
:10401000931786008544E3DF07E08944B70780FFF4
:10402000FD17F18F13D7190013F819003368070132
:104030009399F701B3E9090113D6170011B9138851
:1040400005FE93070002B3590701638AF500930741
:104050000004B385B7403317B700B3EEEE00333832
:10406000D00133683801A5BE3363E3013338600003
:10407000B3890E41B3B73E013306F740C684368498
:10408000ADB6B367E301638707189387F5FF638CC9
:10409000071C9306F07F638ED50ABE8565BD930726
:1040A00000028D8FB3D9BE003318F700B39EFE0017
:1040B000336838013357B700B339D001336838015A
:1040C0003A9365B3131836009317D7011358380085
:1040D00033E8070136849357370095BBBDCB336770
:1040E000D701E31B07DC0E051318D3010D813368DC
:1040F000A8009357330075BBE30F08E2131836008E
:104100009317D701135838003368F8003684935753
:10411000370091B3B309DF41B307E340333F3F01B9
:104120003386E7418544D1B4131835009316D30183
:104130001358380033E80601935733009DBBB38909
:10414000EE413306674033B93E01330926413684D8
:1041500075B40E061318D7010D823368C800935743
:10416000370081BBB309DF41B307E34033363F017A
:104170003386C7409317860063D7070AB389EE4199
:10418000B3076740B3BE3E013386D7413684C9B416
:104190003363E30133386000FDB3138805FE9307F2
:1041A0000002B3590301638AF50093070004B38545
:1041B000B7403313B300336F6F003338E001336817
:1041C00038017DB5B389EE41B3076740B3BE3E0108
:1041D0003386D7413684854409BC131836009317BB
:1041E000D701135838003368F80093573700A5B14A
:1041F000B309DF01B307E30033BFE9013386E70109
:1042000093178600E3D807C2B70780FFFD177D8E9E
:1042100085440DB10E061318D7010D823368C8000E
:10422000935737002DB133E8C900E30608D019B120
:10423000138805FE93070002B3590301638AF50052
:1042400093070004B385B7403313B300336F6F0097
:104250003338E001336838013DB301441307F07F80
:10426000B70708002DBCB309DF01B307E300B3BEF5
:10427000D9013386D70169BB93D74501B706100032
:104280001387F6FF93F7F77F1306E03F2A886D8FB9
:104290000145FD816354F60099C182808280130636
:1042A000E0417D55E34BF6FE130530431D8D7D4601
:1042B000558F634AA6009387D7BE3317F70033554F
:1042C000A800598D828013053041B307F54033555E
:1042D000F7008280411106C622C426C20DCD935735
:1042E000F541B3C4A7009D8C2A842685EF00502594
:1042F0009306E041898EA9477D8093F6F67F63CDD2
:10430000A7022D47098FB3D7E4005505B207B39430
:10431000A400B18329A00144814681478144B207AA
:10432000D206B1837E04D58FC18FB2402244268548
:10433000BE859244410182805515B397A400B2070F
:10434000B1838144E9BF4111370780007D1713D83D
:10435000750126C2935475013373A70093F4F40FCB
:10436000B376B7004AC01378F80F1359F50106C6A3
:1043700022C4FD819A8726854A86131E3300939EA8
:104380003600B3880441630AB90E6350100D63040C
:1043900008149307F00F638BF414B7070004B3EE0F
:1043A000FE00ED4763C1172993070002B387174149
:1043B000B397FE00B3D81E01B337F000B3E7F8009F
:1043C000B307FE4013975700635E071837040004D5
:1043D0007D147D8C2285EF00B0166D15B317A400F7
:1043E0006348951A058D1304150013070002018F09
:1043F0003397E7003337E000B3D78700D98F814484
:1044000013F7770019C713F7F70091466303D70036
:10441000910713975700635B071485041307F00F88
:104420004A866383E4169A07A58313F5F40FB24016
:104430002244A6079314750113D59700458D7E0677
:1044400092440249518D410182806399080A138781
:1044500014001377E70F6317071463900422630DAA
:104460000E1EE3860EFCB307DE4113975700635020
:104470000722B387CE412E8961B7635C100B630EB0
:1044800008089307F00F6383F406B7070004B3EE40
:10449000FE00ED4763C9171F93070002B38717415A
:1044A000B397FE00B3D81E01B337F000B3E7F800AE
:1044B000F297139757006357070A85041307F00F05
:1044C0006384E40CB706007E13D71700FD16858BB6
:1044D000758FD98F35B7638D0E08FD18B307DE4190
:1044E000E38208EE9307F00FE39DF4EA630D0308FF
:1044F00001461305F00FB707400015BF330798407A
:10450000EDE863020E147D17630807189307F00F98
:104510006319F80E2E893683D1BF638B0E04FD1804
:10452000B307DE01E38708F89307F00FE393F4F68F
:1045300075BF63950808850413F7E40F631307122A
:1045400063170510630F0E14E3830EEEB307DE014D
:1045500013975700814463570700370700FC7D1706
:10456000F98F854413F77700E31F07E813D337006B
:104570009307F00FE38CF4F693179300A58313F5DC
:10458000F40F4A866DB54A861305F00F814745B58D
:10459000370700FC7D17F98F13F77700898CE31438
:1045A00007E6E9B73304DE419317540063C3070CF1
:1045B000E31204E201460145814795BD3307984067
:1045C000ADC49307F00FE308F8F4B7070004336EA7
:1045D000FE00ED4763CCE70C93070002998FB317F9
:1045E000FE003357EE00B337F000D98FF697C28440
:1045F000C9B59307F00FE30FF8F0B7070004336E67
:10460000FE00ED4763C3E70893060002998EB316D8
:10461000DE00B357EE003337D000D98FB387FE40AA
:10462000C2842E8945B3854761BB630E0E067D1794
:10463000B307DE01C284E30E07E69307F00FE31A27
:10464000F8F8368365B53683C2842E8915B7E3043E
:104650000EECE38D0EE869BD638D0E022E86B687E3
:10466000F9B39307F00FE381F4F2B307DE0185831A
:10467000D5BD3384CE412E89B1BBE31C0EFCE3894A
:104680000EE62E8949BD854725B5854741BFE39B89
:1046900007EC0146814761BBB387CE41C2842E89B6
:1046A00015B3B68769B33683C284D9B585473DBF94
:1046B000797122D4135475014ECE52CC93199500C2
:1046C00006D626D24AD056CA5AC81374F40F93D9C4
:1046D0009900135AF50169C49307F00F6308F40EAB
:1046E0009397390037070004B3E9E700130414F87F
:1046F0008144014B13D77501939A95001377F70FF7
:1047000093DA9A0013D9F50145CF9307F00F630CA4
:10471000F7028E0A130717F8B7070004B3EAFA0086
:104720003A94014633452A01BD47AA8693051400F1
:1047300063E0971017270000130747AE8A04BA9466
:104740009C40BA9782871304F40F63960A0C93E493
:1047500024000946C1BF01451307F00FB707400009
:10476000B2502254A6075E07A5837E05D98F9254C6
:104770000259F249624AD24A424B5D8D45618280BC
:10478000CA86D689328B8947630FFB088D47E304BD
:10479000FBFC854736856310FB1A01478147C9B783
:1047A000639D090413D77501939A95001377F70F4A
:1047B00091440144054B93DA9A0013D9F50131F77E
:1047C000639D0A0093E414000546A9BF63920902A1
:1047D000A1441304F00F094B31BF5685952393076D
:1047E000B5FF098CB39AFA001304A4F801461DBF63
:1047F000B1441304F00F0D4BF5BD4E852EC6892331
:104800009307B5FF1304A0F8B399F900098C81440C
:10481000014BB245C5B593E434000D4621B7894735
:10482000D286E315FBF636851307F00F81470DBFDF
:1048300041639306F3FF13D6090193D80A01B3F736
:10484000D900B3FADA0033885703B389F802135753
:104850000801B30A5603D6994E97330616036373BD
:1048600057011A96C167FD17B376F7003378F80041
:10487000C206C2969399660093570701B339300177
:10488000E982B2979A07B3E6D900B3E9D7009397C4
:10489000490063D9070013D7190093F71900B369CA
:1048A000F7002E841307F4076350E00493F77900B0
:1048B00099C793F7F90091466383D70091099397BD
:1048C000490063D90700B70700F8FD17B3F9F900ED
:1048D000130704089307E00F63CBE704939769007D
:1048E000A5831377F70FADBD8547B386E74011C7A2
:1048F0006D4601478147E345D6E61307E409339740
:10490000E9003337E000B3D7D900D98F13F7770028
:1049100019C713F7F70091466303D7009107139760
:104920005700634C07009A07A583014715BD13077D
:10493000F00F814735B52E84B5B7054781470DB5D2
:1049400013577501370680009307F6FF1377F70FAB
:104950009305E007B3F6A7009357F501014563F40B
:10496000E50099C3828082809307E0097D55E3EBDF
:10497000E7FE93055009B3E7C60063D7E5001307C8
:10498000A7F63395E7008280130560093307E540F9
:1049900033D5E7008280411106C622C426C20DCD60
:1049A0009357F54133C4A7001D8CAA842285492E54
:1049B0009307E0093387A74093076009FD8063CC24
:1049C000E702A1469377F70F63D5A600611533146C
:1049D000A4002604258021A08144814701442604A7
:1049E00013559400B2402244DE07FE045D8D458DD0
:1049F0009244410182809307900963DDE7009307A9
:104A0000B5019546B317F400898E3354D400B337FB
:104A1000F0005D8C954763D6A7009307B5FF33146C
:104A2000F400B70600FCFD16937774003376D400CB
:104A300085C39377F4009145638CB70011069317F3
:104A4000560063D707009307F009758E3387A74098
:104A50001314660025809377F70F51B7411106C6EE
:104A600022C415CD2A84E92C9307E0093387A74097
:104A70009307600963C0E704A1469377F70F63D5F6
:104A8000A60061153314A4002604258026041355BE
:104A90009400B2402244DE075D8D410182800144D2
:104AA000260413559400B24022448147DE075D8DF1
:104AB000410182809307900963DDE7009307B50108
:104AC0009546B317F400898EB337F0003354D40001
:104AD0005D8C954763D6A7009307B5FF3314F400A8
:104AE000B70600FCFD16937774003376D40085C3B7
:104AF0009377F4009145638CB70011069317560025
:104B000063D707009307F009758E3387A740131406
:104B100066002580260413559400B2402244937702
:104B2000F70FDE075D8D4101828013577501137702
:104B3000F70F41119307170022C426C213149500E2
:104B400006C693F7E70F25809354F50185C7935761
:104B50003400130707387604B2075207B183139560
:104B6000F401D98FC98FB240228522449244BE8578
:104B70004101828005EB39C42285D922A94763C649
:104B8000A7042D47098F930755013357E4003314C9
:104B9000F4009317C70013079038098FB183137778
:104BA000F77F5DBF01CC13573400B7070800D98FDA
:104BB000B2077604B1831307F07F79BF1307F07F44
:104BC000814759BF0147814741BF130755FF33173D
:104BD000E40001447DBF93D645019397C50093F649
:104BE000F67FB183138616008E071357D50113760F
:104BF000E67FFD815D8F9318350035CE138806C89A
:104C00009307E00F63DD0701814713959700930633
:104C1000F00FDE062581FE05558D4D8D8280635592
:104C2000000B931765000E07B337F000D98F93D8A8
:104C3000D801B3E7170113F777006301071013F7E3
:104C4000F70091466303D7009107370700047D8F73
:104C500075C7130718001306F00F9376F70FE305D7
:104C6000C7FA9A07A58313959700DE062581FE05EE
:104C7000558D4D8D8280B367170199EE85CF95478D
:104C80009A07A5831395970093F6F60FDE06258104
:104C9000FE05558D4D8D8280A5DBB707400013952D
:104CA00097009306F00FDE0681452581FE05558DA0
:104CB0004D8D82808147139597008146DE062581C0
:104CC000FE05558D4D8D8280A5576348F804F94740
:104CD00037068000B38707417D45598E6351F5043F
:104CE000795733070741130500023357E6006388FD
:104CF000A700938626CAB316D600B3E8D800B33708
:104D00001001D98F13F77700014815FB139757004F
:104D10008546E34807F48146A5B781468DB793865B
:104D200026C83397D8003337E000B316D600B3D87F
:104D3000F800B367D700B3E7F800E9B7C28689B7D0
:104D4000C167637EF5029307F00F1307000263EC5F
:104D5000A7009717000093876750AA9703C507001D
:104D60003305A74082802181971700009387074F62
:104D7000AA9703C5070061473305A7408280B7079C
:104D80000001636EF5006181971700009387074D5E
:104D9000AA9703C5070021473305A74082804181B8
:104DA000971700009387874BAA9703C507004147D1
:104DB0003305A740828039713EDA2ED232D436D6FE
:104DC0003AD842DC46DE9387C18022CC804326CA93
:104DD00006CEAA8409C41C4C99E3228525230C44E1
:104DE00054102686228536C6EF009017F2406244A2
:104DF000D24421618280011126CA4AC806CE22CC43
:104E00004EC652C4AA842E8901C51C4D91E3DD29EA
:104E10009C4C804499E32685F521971700009387E1
:104E2000E755631CF402C0408357C400A18BB1C78F
:104E30001C48A1C7FD59294A1C4483450900FD1798
:104E4000B1E91CC463DE07062286A94526857920C0
:104E5000FD576308F502294535A097170000938791
:104E6000E7536314F4008044C1B797170000938799
:104E7000E74EE31BF4FAC04445BFA2852685392AD4
:104E800055D97D55F2406244D2444249B249224A42
:104E9000056182801CC4050963D70700184C63CBE9
:104EA000E700638945011C401387170018C0238061
:104EB000B70059B7228626851520E31F35F7D1B7ED
:104EC0001C401387170018C029472380E70061B7EB
:104ED0009387C180AA8588436FF0FFF1011122CC2E
:104EE00026CA4AC806CE4EC6AA842E89328401C577
:104EF0001C4D91E3012997170000938727486319F8
:104F0000F406C0401C4C1CC48357C400A18BC9C309
:104F10001C48BDCF1C4808409379F90F1379F90F4D
:104F20001D8D5C486346F500A2852685652C2DE520
:104F30001C440505FD171CC41C401387170018C02E
:104F4000238037015C486389A7008357C400858BA1
:104F500081CBA9476316F900A285268561240DED52
:104F6000F24062444A85D2444249B2490561828096
:104F700097170000938787426314F400804459B761
:104F8000971700009387873DE31EF4F6C0449DBF4A
:104F9000A285268521203DDD7D59D9B74111938712
:104FA000C18026C2844322C44AC006C62A892E84F0
:104FB00089C49C4C99E32685B126971700009387F6
:104FC000E73B631CF402C0400317C40093170701BA
:104FD000C18393F68700B5EE93F607019DEEA547D2
:104FE0002320F900136707042316E4007D55B2401F
:104FF000224492440249410182809717000093871E
:10500000E7396314F4008044C1B797170000938711
:10501000E734E31BF4FAC04445BF918B8DC74C586D
:1050200089C9930744046384F5004A85A923232A88
:1050300004028357C4002322040093F7B7FD23160C
:10504000F4001C481CC08357C40093E78700231654
:10505000F4001C4881EF8357C4001307002093F726
:1050600007286385E700A2854A85B5218357C400D8
:1050700013F7170005C75C4823240400B307F0406A
:105080001CCC1C480145A5F78317C40013F707087B
:1050900039DF93E707042316F40089BF898B0147A2
:1050A00091E3584818C4F1BF83D7C500011122CC41
:1050B00026CA06CE4AC84EC613F78700AA842E8495
:1050C00071EFD841634DE000B841634AE00001450B
:1050D000F2406244D2444249B24905618280585448
:1050E0007DD703A904009396370123A0040063DD54
:1050F000060670488357C400918B99C75C401D8E8B
:105100005C5899C33C401D8E5C540C5081462685EA
:105110008297FD570357C400631DF5009440F5477F
:1051200063E8D706B70740208507B3D7D700858B3C
:10513000A5C31C48232204001CC09317370163D861
:105140000700FD576314F5009C4091E368C84C5874
:1051500023A02401ADDD930744046384F500268574
:105160001929232A0402A5B70C5001468546268535
:105170000297FD572A86E31FF5F69C40A5DF754789
:105180006385E70059476394E70423A0240181B7AE
:10519000136707042316E4007D551DBF83A905018D
:1051A000E38709F203A905008D8B23A0350133099C
:1051B0003941014791E3D84918C4E35A20F11C54FE
:1051C0000C50CA864E86268582976349A000835775
:1051D000C40093E707042316F4007DBFAA9933099E
:1051E000A940E1BF9C49A5C3011122CC06CE2A8467
:1051F00011C51C4D81E72EC63122B245971700001C
:105200009387C717639CF5004C408397C5009DC7E3
:1052100022856244F24005616FF01FE99717000094
:105220009387C7176394F5000C44C5B79717000020
:105230009387C712E39BF5FC4C44C1BFF240624424
:1052400001450561828001458280411122C406C664
:105250002A842316B5002317C50023200500232226
:105260000500232405002322050623280500232A00
:105270000500232C0500214681451305C505EFA037
:105280003FF8971700009387A7B55CD097170000E9
:10529000938707B81CD497170000938747BC5CD44A
:1052A00097170000938707BF00D01CD8B240224454
:1052B0004101828097050000938505F391AA411171
:1052C00026C2130680069384F5FFB384C4024AC045
:1052D0002E8922C406C69385440791262A8401CDCF
:1052E0002320050023222501310508C413868406E6
:1052F0008145EFA0FFF02285B2402244924402494A
:10530000410182801C4DA5E7411106C622C49707C2
:105310000000938767FA1CD5938701819C4323245F
:10532000050423260504232805046314F500854796
:105330001CCD2A84352848C022851D2808C4228512
:10534000052848C4484001469145EFF01FF0084445
:105350000546A545EFF07FEF48440946C945EFF003
:10536000DFEE85471CCCB24022444101828082801E
:1053700041119387018126C284434AC006C69C4CD2
:1053800022C42A8981E72685EFF0DFF7938484041D
:105390008044DC40FD1763D607009C40B9CF8440B1
:1053A000C5BF0317C40039E7C17785072322040668
:1053B0002320040023220400232404005CC42328A7
:1053C0000400232A0400232C0400214681451305F0
:1053D000C405EFA0FFE2232A0402232C04022324A5
:1053E0000404232604042285B24022449244024944
:1053F000410182801304840671BF91454A85EFF014
:105400001FEC88C049FDB1472320F9000144E1BFEA
:10541000797122D44AD052CC56CA5AC85EC606D632
:1054200026D24ECE2A8AAE8A130485040149054B42
:10543000FD5B09ECB25022544A8592540259F2495C
:10544000624AD24A424BB24B45618280044483296E
:105450004400FD1963D409000040E1BF83D7C400B4
:10546000637BFB008397E40063877701A685528501
:10547000829A3369A90093848406E1BF1971A6DA80
:10548000AE848395E500A2DC86DE328463DC050011
:1054900083D7C40023A0060093F7070885E7930786
:1054A00000401DA0300836C6EF005024B246E3414C
:1054B00005FE7247BD67F98F7977BA9793B71700E2
:1054C0009CC2F1BF930700041CC0F6506654D6542A
:1054D00001450961828083D7C500011122CC06CE27
:1054E00026CA4AC8898B2E8489CF930774041CC0AE
:1054F0001CC885475CC8F2406244D24442490561F9
:10550000828074003000AA84EFF05FF7A2452A89F8
:105510002685312201ED8317C40013F7072061FFB0
:10552000F19B93E727002316F400C1B7970700000B
:10553000938787D89CD48357C40008C008C893E7D2
:1055400007082316F400A2475CC8B24791CF831521
:10555000E4002685EF00301C01C98357C400F19B8D
:1055600093E717002316F4008357C4003369F9004A
:105570002316240149B7DDC183A7C5FF411122C409
:1055800006C626C21384C5FF63D307003E94AA84CF
:10559000EF00501F938741859C4381EF2322040035
:1055A00023AA81842244B2402685924441016F009F
:1055B000901D637EF40014403307D4006396E70027
:1055C0009843DC43369718C05CC0D9BFBA87D8432C
:1055D00019C3E37DE4FE94433386D700631F86003E
:1055E0001040B29694C33386D700E31DC7FA104328
:1055F0005843B29694C3D8C375B76375C400B14716
:105600009CC04DB71040B306C4006316D7001443C6
:105610005843B29614C058C0C0C369B78280011104
:1056200026CA93843500F19806CE22CC4AC84EC6CD
:10563000A104B14763F3F404B14463E2B4042A89DA
:10564000EF0050149387418598433A8439E093875B
:1056500081859C4391E781454A85A12F23ACA18494
:10566000A6854A85B927FD5963193507B147232017
:10567000F9004A85EF00301129A0E3D004FCB147BE
:105680001CC10145F2406244D2444249B24905611D
:1056900082801C40858F63CF0702AD4663F6F6001B
:1056A0001CC03E9404C031A05C406313870223AA4F
:1056B000F1844A85EF00300D1305B40093074400D0
:1056C00061993307F5405DDF3A94898F1CC05DBF57
:1056D0005CC3C5B72287404095BF1304350071985D
:1056E000E30285FCB305A4404A85E125E31C35FBB4
:1056F000B5BF1C46FD171CC663DA0700184E63C50C
:10570000E700A9476394F5006FF04FFD1C422E851A
:105710001387170018C22380B7008280011122CCA2
:1057200026CA4AC84EC652C406CE2A89AE893284D9
:10573000B304D6007D5A63149400014511A8834533
:1057400004004E864A85EFF0DFFA0504E31545FFB5
:10575000F2406244D2444249B249224A0561828001
:10576000357122CD26CB4AC94EC706CF52C556C386
:105770005AC1DEDEE2DCE6DAAA89AE8432893684FA
:1057800009C51C4D99E3EFF0FFB797170000938709
:10579000E7BE639CF40C83A4490083D7C400A18BAB
:1057A000FDC79C48EDC793070002A304F1029307CD
:1057B000000302D22305F10222C6930B5002971A6E
:1057C0000000938AAABF054C294B4A8483470400F2
:1057D00099C36391770FB30C2441638E0C00E68666
:1057E0004A86A6854E85EFF07FF3FD576306F51ECA
:1057F0009256E69636D283470400638F071CFD5706
:105800001309140002C802CE3ECA02CCA309010447
:1058100082D48345090015465685812F130419004B
:10582000C24759E913F7070109C713070002A30983
:10583000E10413F7870009C71307B002A309E104C5
:10584000834609001307A0026380E608F2474A84F2
:10585000814625460347040093051400130707FDFE
:105860006379E60AB5CA3ECE85A8971700009387EC
:10587000E7B26395F40083A4890005B79717000089
:105880009387C7ADE39BF4F083A4C90039B7A6851D
:105890004E85EFF0AFF001D97D55FA406A44DA4405
:1058A0004A49BA492A4A9A4A0A4BF65B665CD65C70
:1058B0000D618280050419BF330555413315AC00D5
:1058C000C98F3EC82289B1B73247930647001843B3
:1058D00036C6634907023ACE034704009307E00245
:1058E000631FF704034714009307A002631BF7022A
:1058F000B2470904138747009C433AC663C10702B5
:105900003ECA35A83307E04093E727003ACE3EC8A9
:10591000E1B7B387670385462E84BA9725BFFD5745
:10592000C5B7050402CA81468147254603470400DE
:1059300093051400130707FD6376E606F1F283452D
:1059400004000D46171500001305C5A7392D11CD0C
:1059500097170000938707A71D8D93070004B3973F
:10596000A700424505045D8D2AC8834504001946F9
:1059700017150000130545A5130914002304B102EF
:10598000ED233DC197A7FFFF9387C76795E7424780
:10599000B2471377071009CF91073EC69257D297A7
:1059A0003ED225B5B387670385462E84BA97BDBF1F
:1059B0009D07E19BA107D5B7780097060000938665
:1059C00026D626860C084E8597000000E7000000CA
:1059D000FD572A8AE314F5FC83D7C40093F7070424
:1059E000E39C07EA125555BD7800970600009386A0
:1059F00026D326860C084E85012AD9BF797156CA4E
:105A00009C49BA8A984522D426D24ECE52CC06D68C
:105A10004AD05AC85EC6AA892E84B284368A63D315
:105A2000E700BA879CC00347340419C385079CC0AC
:105A30001C4093F7070281C79C4089079CC003293B
:105A4000040013796900631A0900130B9401FD5BCC
:105A50005C449840998F634CF9041C40834634049D
:105A600093F70702B336D000A5EB13063404D285B2
:105A70004E85829AFD576303F5041C4011469840F9
:105A8000998B544481446397C700B384E64063D341
:105A9000040081441C4418486354F700998FBE9455
:105AA000014969047D5B63982405014509A8854681
:105AB0005A86D2854E85829A631E75017D55B250F5
:105AC000225492540259F249624AD24A424BB24B92
:105AD000456182800509ADBF3307D400130600037A
